:100000000C946D000C9495000C9495000C942E02A9
:100010000C942E020C942E020C94D3090C9495008F
:100020000C9495000C9495000C9495000C949500FC
:100030000C9495000C9495000C9495000C949500EC
:100040000C94F8030C9495000C9495000C94950076
:100050000C9495000C9495000C9495000C949500CC
:100060000C9495000C949500C40EC40EC40E8F0E13
:10007000E70EF50EC40EC40E8F0EE70E0000000052
:1000800023002600290000000000240027002A0089
:1000900000000000250028002B00040404040404D0
:1000A0000404020202020202030303030303010227
:1000B00004081020408001020408102001020408F6
:1000C00010200000000800020100000304070000E7
:1000D0000000000000003F0F350F11241FBECFEFBE
:1000E000D8E0DEBFCDBF11E0A0E0B1E0E0ECFAE285
:1000F00002C005900D92A63DB107D9F722E0A6ED0A
:10010000B1E001C01D92A23EB207E1F710E0CCE6DB
:10011000D0E004C02197FE010E94F713CB36D1072F
:10012000C9F70E94D80F0C9453150C940000E0916D
:100130008502F09186028081811103C08FEF9FEFCD
:100140000CC0E0918502F09186020580F681E02DD9
:100150000680F781E02D8281938190932402809321
:1001600023020895209118023091190228173907A7
:1001700071F49091170280911602981741F0E09166
:100180001702F0E0EA52FE4F808190E008958FEF71
:100190009FEF089508951F93CF93DF93DC015C9642
:1001A0002D913C915D972115310539F481E090E066
:1001B00013969C938E9312973DC05196ED91FC91AE
:1001C000529750969C915097892F80951FB75E96B5
:1001D0004C915E9741FB772770F941FD6095F8944B
:1001E0004081772311F0492B01C048234083E90166
:1001F0002197F1F748E0508160FF02C0592B01C000
:1002000058235083E9012197F1F76695415099F7FA
:10021000772321F090818923808303C08081982BEC
:1002200090831FBF5C968D919C915D970197F1F72C
:1002300021E030E0C901DF91CF911F910895209115
:100240001802309119022817390771F480911602AB
:100250002091170290E0805C9F4F821B910960E41F
:1002600070E00E94C113089580E090E0089520910D
:1002700018023091190228173907B9F49091170222
:1002800080911602981789F0E0911702F0E0EA5287
:10029000FE4F80812091170230E02F5F3F4F2F7378
:1002A00033272093170290E008958FEF9FEF089572
:1002B000089580E090E00895CF93DF93EC0160E033
:1002C0008E810E945B0661E08E810E945B0660E089
:1002D0008E810E945B068BE891E00197F1F7DF9138
:1002E000CF91089500E010E080911C02882309F16D
:1002F0000FB6F8940F92E0919502F0919602C681A4
:10030000D781CE0102960E94D6098091CA028150FF
:100310008093CA0280911C02815080931C020F902E
:100320000FBE8F89988D0E944C0DCE010E944C0DFE
:10033000DBCF8091A202823010F00E949D0A01154D
:10034000110591F20E940000CFCFCF92DF92EF9281
:10035000FF920F931F93CF93DF937C016C0187E093
:10036000C80ED11CC0E0D0E0062F10E0B8010C2E62
:1003700002C0759567950A94E2F76170F601819164
:100380006F010E945B062196C430D10579F7C70141
:10039000DF91CF911F910F91FF90EF90DF90CF9061
:1003A0000C945C01CF92DF92EF92FF920F931F9318
:1003B000CF93DF93EC01F62E642F8C810E945B06B5
:1003C0008D818F3F19F060E00E945B068F850F2DB5
:1003D00010E084FF25C06E0187E0C80ED11CE12C1F
:1003E000F12CB8010E2C02C0759567950A94E2F7BE
:1003F0006170F60181916F010E945B06FFEFEF1AB9
:10040000FF0A88E0E816F10461F7CE01DF91CF9191
:100410001F910F91FF90EF90DF90CF900C945C01B3
:10042000B80184E0759567958A95E1F7CE010E9441
:10043000A5016F2DCE01DF91CF911F910F91FF90FC
:10044000EF90DF90CF900C94A50141E00E94D20183
:1004500081E090E0089540E00C94D2011F920F9249
:100460000FB60F9211242F933F934F935F936F9387
:100470007F938F939F93AF93BF93EF93FF93E091FD
:100480001802F0911902309709F451C0968DA68593
:10049000B785858591FF04C09C91892329F447C0C5
:1004A0009C91892309F043C0A389B4899C918589D3
:1004B000809589238C93868997890197F1F7608DC0
:1004C000718DA685B785558538E020E0CB01019771
:1004D000F1F7822F90E095958795282F4C91452331
:1004E00009F02068315091F7868D81FD209580912B
:1004F000160290E001968F739927309117023817F2
:1005000049F0A0911602B0E0AA52BE4F2C938093FE
:10051000160203C0868D8160868F828D938D019730
:10052000F1F7A389B4899C918589892B8C93FF91DC
:10053000EF91BF91AF919F918F917F916F915F915B
:100540004F913F912F910F900FBE0F901F901895D4
:10055000E0911802F0911902E817F90769F4A389EC
:10056000B4899C918589809589238C931092190276
:100570001092180281E0089580E008950F931F9370
:100580001092670210926602109265021092640245
:1005900010926302109262028DE991E090936902D9
:1005A0008093680290915802963108F057C02DEB65
:1005B00030E030936302209362022BE931E0309304
:1005C0006502209364022CE231E0309367022093AD
:1005D000660220916800983050F031E09E3008F4B7
:1005E00030E081E001C0880F3A95EAF701C084E06D
:1005F000822B80936800983038F09E3040F096311E
:1006000048F020E030E008C02DE630E005C02BE6E1
:1006100030E002C02CE630E03093600220935F02AD
:10062000983030F481E001C0880F9A95EAF70EC047
:10063000292F30E09E3018F42850310902C02E5086
:10064000310981E001C0880F2A95EAF780936102A1
:1006500080916802909169020197F1F7809166029A
:1006600090916702892B21F18091180290911902D3
:1006700022E08C349207E1F0009711F00E94A8026A
:1006800080916A028E7F80936A0210921602109205
:1006900017028CE492E09093190280931802E09183
:1006A0005F02F0916002908180916102892B8083CA
:1006B00062E08BE692E00E94E30661E087E00E9440
:1006C000A70661E086E00E94A70661E085E00E943F
:1006D000A70660E080E00E94330685E291E00E9478
:1006E000480684E291E00E942E0661E084E00E94C8
:1006F000330684E391E00E942E0660ED77E080E00F
:1007000090E00E94860761E08BE692E00E942B0257
:100710008BE39FE10197F1F700E010E020E040E873
:1007200050E06CE371E080EA94E00E9427121F9190
:100730000F9108952FB7F89460913E0270913F0297
:1007400080914002909141022FBF0895CF92DF9295
:10075000EF92FF920F931F93CF93DF936C017A0177
:100760008B01C0E0D0E0CE15DF0589F0D8016D9196
:100770008D01D601ED91FC910190F081E02DC60133
:100780000995892B11F47E0102C02196ECCFC70197
:10079000DF91CF911F910F91FF90EF90DF90CF905D
:1007A00008950E943E153FB7F894809142029091BF
:1007B0004302A0914402B091450226B5A89B05C012
:1007C0002F3F19F00196A11DB11D3FBFBA2FA92FD0
:1007D000982F8827820F911DA11DB11DBC01CD014D
:1007E00042E0660F771F881F991F4A95D1F7089539
:1007F0001F920F920FB60F9211242F933F938F9356
:100800009F93AF93BF9380913E0290913F02A0913E
:100810004002B091410230913D0223E0230F2D3779
:1008200020F40196A11DB11D05C026E8230F0296F4
:10083000A11DB11D20933D0280933E0290933F0283
:10084000A0934002B09341028091420290914302F2
:10085000A0914402B09145020196A11DB11D809363
:10086000420290934302A0934402B0934502BF9189
:10087000AF919F918F913F912F910F900FBE0F904D
:100880001F9018956115710579F0FB01019000200A
:10089000E9F73197AF01461B570BDC01ED91FC9155
:1008A0000280F381E02D099480E090E008954F925A
:1008B0005F926F927F92EF92FF920F931F93CF936D
:1008C000DF93CDB7DEB7A1970FB6F894DEBF0FBEAA
:1008D000CDBF7C01FA01CB0119A2223008F42AE035
:1008E0008E010F5D1F4F422E512C612C712CBF01C8
:1008F000A30192010E94D513F901CA010150110907
:100900006A3014F4605D01C0695CD8016C93232BDC
:10091000242B252B61F7B801C7010E944204A19640
:100920000FB6F894DEBF0FBECDBFDF91CF911F9100
:100930000F91FF90EF907F906F905F904F90089590
:10094000CF92DF92EF92FF920E949A036832724830
:100950008540910540F461E087E00E945B0661E01C
:1009600085E00E945B0660E080E00E94330682E43E
:1009700091E00E942E060E949A03683E7340810512
:10098000910538F00E949A0360347E4785409105B6
:1009900080F00E949A036038794A83409105C8F03C
:1009A0000E949A036032794B8340910508F44AC053
:1009B00010C00E949A0328EE33E040E050E00E940D
:1009C000D513BA01A9012AE08BE692E00E945704F0
:1009D000E0CF60E086E00E945B060E949A03603EE2
:1009E000734984409105C8F10E949A036038734AA4
:1009F0008440910590F561E086E00E945B0664EF1B
:100A000071E080E090E00E9486070E949A036034C3
:100A10007E478540910530F00E949A03672B682B32
:100A2000692B01F50E949A036038794A8340910549
:100A300020F10E949A036032794B83409105E8F4DB
:100A400060E01CC061E086E00E945B0664EF71E03C
:100A500080E090E00E948607C0CF60E086E00E94C0
:100A60005B06D3CF61E086E00E945B0664EF71E035
:100A700080E090E00E948607D5CF61E085E00E948B
:100A80005B060E949A0360367A4E8105910540F01C
:100A90000E949A03683A784D8140910508F4A4C0F9
:100AA0000E949A03683A784D8140910540F00E9477
:100AB0009A036830734C8240910508F49EC00E94EE
:100AC0009A036830734C8240910540F00E949A036B
:100AD00068367D4A8340910508F498C00E949A03C5
:100AE00068367D4A8340910540F00E949A03683C35
:100AF00077498440910508F492C00E949A03683CAB
:100B000077498440910540F00E949A036832724808
:100B10008540910508F48CC00E949A0360347E479A
:100B200085409105A0F061E080E00E94330680E5F9
:100B300091E00E942E0661E085E00E945B0660E085
:100B400087E00E945B0660E086E00E945B0680E42E
:100B500080937C0080917A00806480937A008091F9
:100B60007A0086FDFCCF809178002091790090E09A
:100B7000922B909326028093250281E691E00E94B9
:100B80004806C0902502D09026020D2C000CEE08DD
:100B9000FF08F7FE14C0E0914C02F0914D02019065
:100BA000F081E02D6DE28CE492E009954427552711
:100BB000BA014C195D096E097F092AE003C02AE0D9
:100BC000B701A6018CE492E00E9457046EE671E042
:100BD0008CE492E00E94420481E791E0FF90EF9064
:100BE000DF90CF900C94480661E080E00E943306CD
:100BF00084E791E00E942E0653CF61E080E00E94DE
:100C0000330685E891E00E942E0659CF61E080E02E
:100C10000E94330686E991E00E942E065FCF61E0D4
:100C200080E00E94330687EA91E00E942E0665CF9D
:100C300061E080E00E94330688EB91E00E942E067E
:100C40006BCF259A2D9A2FEF80E792E021508040BC
:100C50009040E1F700C000001D9AF5CFBC018BE683
:100C600092E00C944204643008F063E090917E02BC
:100C7000691710F06FEF690FE62FF0E0E559FD4FAF
:100C80009489682F690F60688BE692E00C942B02C0
:100C9000CF93DF93BC018CE492E00E944204EC010C
:100CA0006EE671E08CE492E00E9442048C0F9D1F7E
:100CB000DF91CF91089590E0FC01EE53FF4F349106
:100CC000FC01E255FF4F2491FC01E656FF4FE491F1
:100CD000EE2309F43BC0332339F1333091F038F47B
:100CE0003130A9F0323001F584B58F7D12C0373034
:100CF00091F03830A1F03430B9F4809180008F7DCC
:100D000003C0809180008F77809380000DC084B5F0
:100D10008F7784BD09C08091B0008F7703C0809128
:100D2000B0008F7D8093B000F0E0EE0FFF1FE05722
:100D3000FF4FA591B4918FB7F894EC91611103C066
:100D400020952E2301C02E2B2C938FBF0895CF9377
:100D5000DF9390E0FC01E255FF4F2491FC01E65641
:100D6000FF4F8491882361F190E0880F991FFC0167
:100D7000EA57FF4FC591D491FC01E057FF4FA59171
:100D8000B491611109C09FB7F8948881209582239E
:100D90008883EC912E230BC0623061F49FB7F894E6
:100DA0003881822F809583238883EC912E2B2C937E
:100DB0009FBF06C08FB7F894E8812E2B28838FBF82
:100DC000DF91CF910895EF92FF920F931F93CF93EE
:100DD000DF93EC01623018F08F8588608F876B8B12
:100DE0001C8A80E48D8B80E18E8B80E58F8B61E0A7
:100DF0008C810E94A7068D818F3F19F061E00E94CF
:100E0000A70661E08E810E94A7067E0187E0E80EBA
:100E1000F11C00E010E08F8584FD03C084E090E0C9
:100E200002C088E090E0081719074CF461E0F70170
:100E300081917F010E94A7060F5F1F4FECCF8BE3CC
:100E40009DE00197F1F760E08C810E945B0660E015
:100E50008E810E945B068D818F3F19F060E00E94B9
:100E60005B066F8564FD1DC063E0CE010E94A50195
:100E70000BE416E4C8010197F1F763E0CE010E948C
:100E8000A501C8010197F1F763E0CE010E94A50119
:100E900083E592E00197F1F762E0CE010E94A5019F
:100EA00016C06062CE010E942B028BE496E401978B
:100EB000F1F76F856062CE010E942B0283E592E01C
:100EC0000197F1F76F856062CE010E942B026F855A
:100ED0006062CE010E942B0284E0888B6CE0CE0120
:100EE0000E942B0261E0CE010E942B028BE39FE166
:100EF0000197F1F782E0898B66E0CE01DF91CF9117
:100F00001F910F91FF90EF900C942B028F929F9264
:100F1000AF92BF92CF92DF92EF92FF926B017C0172
:100F20000E94D3034B015C01C114D104E104F1041C
:100F3000F1F00E94D303DC01CB0188199909AA09B9
:100F4000BB09883E9340A105B10570F321E0C21AA8
:100F5000D108E108F10888EE880E83E0981EA11CF4
:100F6000B11CC114D104E104F10419F7DDCFFF90E5
:100F7000EF90DF90CF90BF90AF909F908F900895AB
:100F80000FB6F8940F928091490290914A020F9007
:100F90000FBE08950FB6F8940F92FC01928D0F903A
:100FA0000FBE81E0911180E008950F920FB6F89482
:100FB0000F921F9211242F923F924F925F926F9245
:100FC0007F928F929F92AF92BF92CF92DF92EF92D9
:100FD000FF920F931F932F933F934F935F936F93C2
:100FE0007F938F939F93AF93BF93CF93DF93EF93B1
:100FF000FF93A091C802B091C9020DB60D920EB632
:101000000D9213BE809146028111F3C08091490276
:1010100090914A02019690934A0280934902009768
:1010200099F520918502309186024091830250917A
:101030008402509386024093850230938402209369
:10104000830220914B022F5F20934B02E091850297
:10105000F09186022081211107C02FEF3FEF3093DE
:1010600024022093230210C0E0918502F0918602B1
:101070000580F681E02D0680F781E02D2281338105
:1010800030932402209323022091230230912402E2
:101090008217930710F420E09CC020E019E0E09153
:1010A0008502F09186023081311107C08FEF9FEFEA
:1010B00090932402809323028CC0E0918502F091EA
:1010C00086020580F681E02D0680F781E02D4281C1
:1010D00053818417950728F45093240240932302E8
:1010E00078C0AF014E5F5F4FA285B3856481758183
:1010F000E680F780EB01FD82EC82C681D7817B839D
:101100006A8311966D917C9112976417750721F48B
:101110001296DC93CE931197138612863C91315030
:101120003C933C91A489B5891097F9F06685778541
:10113000E088F188EB01FD82EC82C089D1897B8354
:101140006A831196ED90FC901297BF01645F7F4F08
:10115000E616F70621F41296DC93CE931197158AC2
:10116000148A3C9131503C933C91A6893091C6023F
:101170003A1710F4A093C6021A9FD0011124BD01A2
:101180006E557D4F7B01DB011196CD91DC9112975D
:10119000D583C4836C817D81778366836C817D81F7
:1011A000DB0113965C934E9312975D834C83F38619
:1011B000E286E70138813F5F3883A091C802B09191
:1011C000C902468956963C91431708F468CF21E03E
:1011D00066CFE091C802F091C902E689D9E0ED9F9F
:1011E000F0011124EE55FD4F8081823040F021E066
:1011F00006C080911A028F5F80931A0220E08091CE
:101200001B02811103C0222309F466C080914602AB
:10121000882321F081E080931B025EC010921B02A4
:10122000A091C802B091C902E091C802F091C90230
:101230002D913C918789908D82179307A8F080911A
:10124000C8029091C9028091C8029091C902259A62
:101250002D9A2FEF67EA71E6215060407040E1F768
:1012600000C000001D9AF5CF8091C60269E001C060
:101270008150482F50E0649F9001659F300D1124EC
:10128000F901EE55FD4F9081992391F3A181B2812F
:1012900012960D90BC91A02DB283A1832B553D4F8A
:1012A000A217B30731F412962D913C911397328314
:1012B000218399E0949FF001959FF00D1124EE5544
:1012C000FD4F0180F281E02D268137813093C902E4
:1012D0002093C8028093C602A091C802B091C902AF
:1012E000CD91CDBFDD91DEBFFF91EF91DF91CF9129
:1012F000BF91AF919F918F917F916F915F914F912E
:101300003F912F911F910F91FF90EF90DF90CF9021
:10131000BF90AF909F908F907F906F905F904F9015
:101320003F902F901F900F900FBE0F900895FC01DB
:10133000DB010FB6F8940F924091490250914A0296
:10134000818192812D913C9111972F3F6FEF36074C
:10135000F1F070914B026081761719F04817590728
:10136000C0F4481B590B4217530770F4241B350B6C
:101370002D933C9380914B02808380914902909100
:101380004A029283818303C01D921C9202C080E0B6
:1013900001C081E00F900FBE0895809146028F5FDB
:1013A0008093460208950E94D5071895CF93DF9346
:1013B000FC01A085B1858281938124813581EC0176
:1013C0003D832C83C481D5819B838A8311968D9123
:1013D0009C9112978E179F0721F41296DC93CE935F
:1013E0001197118610868C9181508C938C91DF918E
:1013F000CF910895CF93DF939C01FB01DC011196FF
:10140000CD91DC911297D383C2838C819D8195838A
:1014100084838C819D81DC0113967C936E9312975B
:101420007D836C8331872087F90180818F5F808382
:10143000DF91CF9108950F931F93CF93DF93DC013A
:101440001596ED91FC911697C681D7818E01045FA8
:101450001F4FC8010E94D60980914602811114C015
:101460000A501109C8010E94D6099E898091C602BE
:10147000891710F49093C602B9E09B9FC001112414
:10148000B8018E559D4F03C0B80189E992E00E94D2
:10149000FA09E091C802F091C9029E8986898917EC
:1014A00020F481E080931B0201C080E0DF91CF91A6
:1014B0001F910F910895EF92FF920F931F93CF9377
:1014C000DF93EC010FB6F8940F921E8D7C0181E141
:1014D000E80EF11C01E011165CF48989882341F0C3
:1014E000C7010E941B0A811100931B021150F3CF08
:1014F0008FEF8E8F0F900FBE0FB6F8940F921D8D49
:101500007E0188E0E80EF11C01E011165CF488858C
:10151000882341F0C7010E941B0A811100931B021E
:101520001150F3CF8FEF8D8F0F900FBEDF91CF91C2
:101530001F910F91FF90EF9008950F920FB6F894BE
:101540000F921F9211242F923F924F925F926F92AF
:101550007F928F929F92AF92BF92CF92DF92EF9243
:10156000FF920F931F932F933F934F935F936F932C
:101570007F938F939F93AF93BF93CF93DF93EF931B
:10158000FF93A091C802B091C9020DB60D920EB69C
:101590000D9280914602882321F081E080931B0206
:1015A0005EC010921B02A091C802B091C902E091E6
:1015B000C802F091C9022D913C918789908D8217C4
:1015C0009307A8F08091C8029091C9028091C80247
:1015D0009091C902259A2D9A2FEF87EA91E6215022
:1015E00080409040E1F700C000001D9AF5CF809147
:1015F000C60269E001C08150482F50E0649F90010D
:10160000659F300D1124F901EE55FD4F908199230E
:1016100091F3A181B28112960D90BC91A02DB2835D
:10162000A1832B553D4FA217B30731F412962D918C
:101630003C9113973283218399E0949FF001959F09
:10164000F00D1124EE55FD4F0180F281E02D268131
:1016500037813093C9022093C8028093C602A091BB
:10166000C802B091C902CD91CDBFDD91DEBFFF911F
:10167000EF91DF91CF91BF91AF919F918F917F912A
:101680006F915F914F913F912F911F910F91FF901B
:10169000EF90DF90CF90BF90AF909F908F907F9012
:1016A0006F905F904F903F902F901F900F900FBEC4
:1016B0000F9008958F929F92AF92BF92CF92DF9238
:1016C000EF92FF920F931F93CF93DF930FB6F8948F
:1016D0000F9280914602815080934602809146028B
:1016E000882311F080E0F2C08091CA028823D1F3F0
:1016F000C0E0D0E029E0F22EEE24E394809199023C
:10170000882351F1E0919E02F0919F02C681D7811A
:10171000CE010C960E94D6098E010E5F1F4FC801A4
:101720000E94D6099E898091C602891710F4909371
:10173000C602F99EC0011124B8018E559D4F0E942A
:10174000FA09E091C802F091C9029E89868998172A
:10175000A8F2E0921B02D2CFCD2B11F00E9497008D
:10176000E0901A02EE2009F4A9C089E0B82EAA245C
:10177000A394CC24CA94DC2C8091460281118CC0A5
:10178000C0914902D0914A022196D0934A02C09357
:1017900049022097B9F480918502909186022091A8
:1017A00083023091840230938602209385029093C5
:1017B00084028093830280914B028F5F80934B025F
:1017C0000E9497008091230290912402F12CC81767
:1017D000D90708F451C0E0918502F091860280811A
:1017E000811105C0D0922402C092230245C0E0912D
:1017F0008502F09186020580F681E02D0681178131
:10180000D80112968D919C911397C817D90728F487
:1018100090932402809323022FC04801B2E08B0EE4
:10182000911CC4010E94D609F80184899589892BED
:1018300021F0C8010C960E94D609D80156968C91C9
:101840009091C602981710F48093C602B89EC0010A
:101850001124B4018E559D4F0E94FA09E091C802EF
:10186000F091C902D80156969C918689981708F480
:10187000B2CFFF24F394AFCFE091C802F091C90238
:10188000E689BE9EF0011124EE55FD4F8081823025
:1018900048F0FF24F39406C080911A028F5F809372
:1018A0001A02F12C80911B02811101C0F110A0924B
:1018B0001B02EA94E11060CF10921A0280911B0281
:1018C000882309F40FCF0E949D0A81E00F900FBE7C
:1018D000DF91CF911F910F91FF90EF90DF90CF900C
:1018E000BF90AF909F908F9008950F931F93CF93C9
:1018F000DF938C01FB01808191818F3F2FEF920755
:1019000021F4E801AF81B8850EC0D8011396129674
:101910002D913C911397E9014881598184179507CE
:1019200010F0D901F4CF12968D919C911397938367
:101930008283EC01FD83EC83B583A4831396FC932F
:10194000EE93129711870087F80180818F5F808363
:10195000DF91CF911F910F910895FC0173836283F2
:10196000918780874617570778F0421B530B848571
:10197000958548175907C8F4BF016E5F7F4F809166
:101980001F02909120020DC04217530718F46217EE
:10199000730758F4BF016E5F7F4F809121029091D1
:1019A00022020E94750C80E0089581E00895EF9274
:1019B000FF920F931F93CF93DF931F92CDB7DEB7A4
:1019C0007C010091490210914A028091C8029091D5
:1019D000C902029669830E94D60969818FEFE816D1
:1019E000F80699F4662389F06091C8027091C902E3
:1019F0006E5F7F4F87E892E00F90DF91CF911F914C
:101A00000F91FF90EF900C94FA09E00EF11EE09117
:101A1000C802F091C902F382E2826091C80270911B
:101A2000C902E016F10678F4809183029091840255
:101A30006E5F7F4F0F90DF91CF911F910F91FF90BD
:101A4000EF900C94750C80918502909186026E5FE8
:101A50007F4F0E94750C8091230290912402E8161A
:101A6000F90620F4F0922402E09223020F90DF9115
:101A7000CF911F910F91FF90EF900895FC01039675
:101A8000928381832FEF3FEF348323839683858373
:101A90009087878310820895CF93DF93009751F04A
:101AA000EC010E94CD09CE010E94A614DF91CF91D6
:101AB0000C945A0BDF91CF910895CF93DF93CDB75C
:101AC000DEB72C970FB6F894DEBF0FBECDBFE09106
:101AD0002102F09122028081FF24F394882339F0BF
:101AE000F12C0580F681E02D0081118102C000E01B
:101AF00010E00E94CD090E94C0076C0180911D0278
:101B000090911E02C816D90620F40E94DC1081E0D4
:101B100001C080E0D0921E02C0921D02811175C0EA
:101B2000F11031C0C016D106B0F10E945A0BE091FD
:101B30002102F09122020580F681E02DE680F780F7
:101B4000C70102960E94D609D7011E968C911E9756
:101B5000813089F41C966D917C911D97600F711FE7
:101B60009801A601C7010E94AD0C882321F0B8019D
:101B7000C7010E949813D7015196ED91FC9152979D
:101B8000C7010995CCC0E0911F02F091200280812D
:101B9000BB24B3948111B12CE0904702F09048022D
:101BA0000FB6F8940F92F701858D8F3F09F4158ECB
:101BB000D7015E968C915E978F3F11F45E961C92D2
:101BC0000F900FBEF701828D811115C06091C80280
:101BD0007091C902645F7F4FC70141960E94FA0964
:101BE000B11004C0C8018C199D0902C08FEF9FEF8E
:101BF0006B2D0E94D70CC7010E945B0A0E945A0BF2
:101C000081118DC00E949D0A8AC00E945A0B87C014
:101C1000911109C080914B028E838091490290916D
:101C20004A0298878F830F900FBE0E94CD090FB68E
:101C3000F8940F92D8015D968C915D978F3F11F4C7
:101C40005D961C92F801868D8F3F09F4168E0F90D9
:101C50000FBEBE01675F7F4FCE0106960E949709B7
:101C60008111D8C0C8010E94CA07882309F4CCC0DA
:101C7000E984FA846091C8027091C902645F7F4F61
:101C8000C6010E94750C61E0C7010E94D70CC80113
:101C90000E945B0A0E945A0B882309F4B2C091E0AB
:101CA0000FB6F8940F92F801F28CFF2009F4A1C04E
:101CB000448D411140C0FA94F801F28E8085811163
:101CC00054C00F900FBEC980C7FC29C00C811D8174
:101CD000D8011A968D919C911B97892B21F0C801F0
:101CE00002960E94D6090E94C007AC0180911D0295
:101CF00090911E024817590730F44B875C870E9469
:101D0000DC105C854B8550931E0240931D028C2D88
:101D1000CC0C990BAA0BBB0B8A30910580F100917A
:101D20004702109148021A86198690E06801B1E1D5
:101D3000CB0ED11CB5CF50E086819781840F951FC3
:101D400097838683228133818217930720F08081D5
:101D5000918197838683D80116966D917C91179710
:101D6000CE0101960E944315A6CFC80108960E9495
:101D70001B0A882309F4A5CF0E949D0AA2CFFC016B
:101D8000EC5CFF4F0C94F713EA80FB80F80164854C
:101D900075856E0D7F1D9701C8010E94AD0C8823CB
:101DA00009F4BDCFD8015196ED91FC915297C8012D
:101DB0000995F8018685813009F0B1CF8485958534
:101DC000B701680F791FC8010E949813A8CF6A81D4
:101DD0007B81D8011D967C936E931C97640F751FB1
:101DE0009A01C8010E94AD0C9ACFC8010E944C0D07
:101DF00096CF29853A85232B09F00ACF0F900FBE85
:101E000066CE0E949D0A4BCFC8010E945B0A0E94C9
:101E10005A0B45CFC8010E945B0A0E945A0BC801A9
:101E20000E94CA07882309F43ACF51CE0F931F931B
:101E3000CF93DF9300D0CDB7DEB789839A830E941A
:101E4000CD0989819A810E9411148C010E945A0B3C
:101E50000115110511F40E942106C8010F900F9081
:101E6000DF91CF911F910F91089586E191E09093BA
:101E70004D0280934C028CE492E00C94A8021092E4
:101E80006E0210926D028AE091E090936C02809352
:101E90006B028DE080936F028FEF809370028CE075
:101EA000809371028BE0809372028AE080937302C8
:101EB00089E08093740288E0809375021092760224
:101EC00010927702109278021092790210927A02A0
:101ED00061E08BE692E00E94E30610924F021092BE
:101EE0004E0288EE93E0A0E0B0E080935002909321
:101EF0005102A0935202B093530286E191E0909375
:101F00004D0280934C021092630210926202109272
:101F1000650210926402109267021092660210929B
:101F200069021092680260916A026E7F6D7F609311
:101F30006A026695617081E068270E945B0661E035
:101F400081E00E94A706EFEAF0E0E491E0935C02F2
:101F5000EBE9F0E0E491F0E0EE0FFF1FE057FF4FF8
:101F60008591949190935E0280935D0260E080E0A1
:101F70000E94A70680916A0281FD04C061E080E0B2
:101F80000E945B0610925802EEEAF0E0E491E093C2
:101F90005902EAE9F0E0E491F0E0EE0FFF1FE458A7
:101FA000FF4F8591949190935B0280935A0208951C
:101FB000789484B5826084BD84B5816084BD85B524
:101FC000826085BD85B5816085BD80916E00816030
:101FD00080936E00109281008091810082608093D6
:101FE00081008091810081608093810080918000D8
:101FF0008160809380008091B10084608093B10003
:102000008091B00081608093B00080917A008460FC
:1020100080937A0080917A00826080937A00809128
:102020007A00816080937A0080917A008068809342
:102030007A001092C1000E94BE020BE312E020E081
:1020400040EC50E069EC71E082E791E00E942712D9
:10205000813009F0AFC00FB6F8940F92809147021B
:1020600090914802892B09F04BC080E392E00E94D6
:102070003E0D87E292E00E943E0D80E392E0909355
:1020800022028093210287E292E0909320028093C3
:102090001F0281E590E00E94160FEC01009761F1AC
:1020A0004F96998388838AE08B8F85E08C8F0FB65B
:1020B000F8940F92288139819B8D4C8D949FC0019B
:1020C0001124B901680F791F7B836A831A8E3D83BF
:1020D0002C83841B9109820F931F9F838E838FEF24
:1020E0008D8F8E8FCE0108960E943E0DCE014196B7
:1020F0000E943E0D0F900FBED0934802C09347023E
:102100000F900FBE8091470290914802892B09F4ED
:1021100051C009E312E023E045E550E06EEC71E0C8
:102120008DE59DE00E942712813009F043C0F894AC
:102130002FEF3FEF30932402209323028093C702B6
:1021400010924A0210924902A89590EC88E10FB6CD
:10215000F894A895809360000FBE90936000A091C2
:10216000C802B091C902CD91CDBFDD91DEBFFF9114
:10217000EF91DF91CF91BF91AF919F918F917F911F
:102180006F915F914F913F912F911F910F91FF9010
:10219000EF90DF90CF90BF90AF909F908F907F9007
:1021A0006F905F904F903F902F901F900F900FBEB9
:1021B0000F9008950E942106EF92FF920F931F93B4
:1021C000CF93DF93E0912102F09122028081882356
:1021D00069F10580F681E02D00811181C681D781EA
:1021E0007E0182E0E80EF11CC7010E94D609E98950
:1021F000FA89CE0109958E85813021F72C853D85A0
:10220000200F311F0217130760F43B832A83D987FD
:10221000C887B70180912102909122020E94750C1B
:10222000D1CFB801CE010E949813CCCF80911F026C
:10223000909120029093220280932102F093200239
:10224000E0931F02DF91CF911F910F91FF90EF90CC
:102250000895AF92BF92CF92DF92EF92FF920F93C9
:102260001F93CF93DF9300D000D01F92CDB7DEB77E
:102270008C017B011D821C8290E0580188E0A80E31
:10228000B11C0FB6F8940F92F801228D838D281798
:1022900008F06DC0D28C448D41113FC08081918186
:1022A000892B09F052C0F801E280F380E114F104B7
:1022B00011F480E02EC0F70182A1815082A326890B
:1022C00091A12917B1F38111F4CF5701F2E0AF0EBC
:1022D000B11CC5010E94D609F70191A1968B492F27
:1022E00050E024E030E0241B350B358724878091B3
:1022F000C602891710F49093C60229E0249FC001FA
:10230000259F900D1124B5018E559D4F0E94FA090D
:1023100081E0F8011382128219C050E0B701F80180
:10232000848195810E944315F801248D84819581D3
:10233000820F911D958384832281338182179307B5
:1023400020F0808191819583848380E0D394F8018B
:10235000D28E9189992321F0C80141960E941B0ACF
:1023600081110E949D0A0F900FBE81E060C02C81F8
:102370003D81232B19F40F900FBE58C0911109C055
:1023800080914B0289838091490290914A029B83FC
:102390008A830F900FBE0E94CD090FB6F8940F925A
:1023A000F801858D8F3F09F4158EF801868D8F3FDA
:1023B00009F4168E0F900FBEBE016C5F7F4FCE01E9
:1023C00001960E94970981112CC00FB6F8940F92C4
:1023D000F801928D838D0F900FBE98131CC0CC8096
:1023E000DD802091C8023091C902B901645F7F4F3E
:1023F000C5010E94750C61E0C6010E94D70CC8019E
:102400000E945B0A0E945A0B882311F091E039CF99
:102410000E949D0AFBCFC8010E945B0A0E945A0BD2
:10242000F5CFC8010E945B0A0E945A0B80E00F9012
:102430000F900F900F900F90DF91CF911F910F9100
:10244000FF90EF90DF90CF90BF90AF9008957F9274
:102450008F929F92AF92BF92CF92DF92EF92FF92B4
:102460000F931F93CF93DF93982EC92E762E872E2E
:10247000EA01D22ECA010E94160F5C01892B09F4D1
:1024800048C188E290E00E94160F7C010097D9F0C5
:10249000DC015896BC92AE925797AE0165EA70E0A7
:1024A000C5010E944C152197D7015796ED91FC91DB
:1024B0005897EC0FFD1FB701675E7F4FA72DB82D12
:1024C000CD01089607C0C5010E944C0D22C1A81776
:1024D000B90749F09D014D91EB014993BE01E90116
:1024E00028812111F4CFD70190961C922D2D2430F4
:1024F00008F023E0E7012E8B29A31AA21B861A8677
:102500001D8A1C8AF986E88684E090E0821B910986
:102510009D878C87FB8AEA8A1BA21CA21DA21EA291
:102520001FA291E19083DF01119782E28C931197B2
:1025300023E32C9311979C921197CC9211971C92A4
:10254000119720E82C9311971C92119722E02C935D
:10255000119723E02C93119724E02C93119725E0F9
:102560002C93119726E02C93119727E02C93119729
:1025700028E02C93119729E02C93119720E12C93BC
:1025800011979C93119792E19C93119793E19C93DF
:10259000119794E19C93119795E19C93119796E183
:1025A0009C93119797E19C93119798E19C931197B5
:1025B00099E19C93119790E29C93119791E29C93DF
:1025C00011978C93119783E28C9311971C9211971A
:1025D0001C92119786E28C93119787E28C93119746
:1025E00088E28C93119789E28C93119780E38C9306
:1025F000119781E38C93B697F983E8830115110550
:1026000019F0F801F182E0820FB6F8940F928091F0
:10261000CA028F5F8093CA028091C8029091C9025A
:10262000892BD1F5F092C902E092C8028091CA02CA
:10263000813009F043C082EA92E00E943E0D8BEAAD
:1026400092E00E943E0D84EB92E00E943E0D8DEBE5
:1026500092E00E943E0D84ED92E00E943E0D8BECD4
:1026600092E00E943E0D89E992E00E943E0D80E9D1
:1026700092E00E943E0D87E892E00E943E0D84EDBC
:1026800092E090938602809385028BEC92E0909387
:1026900084028093830212C08091C70281110EC010
:1026A000E091C802F091C9029689D70156968C91A3
:1026B000891720F0F092C902E092C8028091DD02F1
:1026C0008F5F8093DD02E7018E899091C602981793
:1026D00010F48093C602D9E08D9FC0011124B70188
:1026E0006E5F7F4F8E559D4F0E94FA090F900FBE6F
:1026F0008091C702882359F0E091C802F091C90285
:102700009689F7018689981710F40E949D0A81E046
:1027100001C08FEFDF91CF911F910F91FF90EF904C
:10272000DF90CF90BF90AF909F908F907F90089553
:10273000CF93DF9300D000D01F92CDB7DEB79C01BE
:102740008091470290914802009761F019827B8343
:102750006A833D832C832091C702222329F0209194
:10276000460202C080E005C0BE016F5F7F4F0E943D
:1027700029110F900F900F900F900F90DF91CF9134
:10278000089597FB072E16F4009407D077FD09D023
:102790000E94FD1307FC05D03EF4909581959F4F54
:1027A0000895709561957F4F0895A1E21A2EAA1B96
:1027B000BB1BFD010DC0AA1FBB1FEE1FFF1FA217F1
:1027C000B307E407F50720F0A21BB30BE40BF50BEE
:1027D000661F771F881F991F1A9469F76095709577
:1027E000809590959B01AC01BD01CF010895EE0F3E
:1027F000FF1F0590F491E02D0994AA1BBB1B51E12A
:1028000007C0AA1FBB1FA617B70710F0A61BB70B60
:10281000881F991F5A95A9F780959095BC01CD0105
:102820000895CF93DF938230910510F482E090E019
:10283000E091E002F091E10220E030E0C0E0D0E081
:10284000309711F14081518148175907C0F048175E
:10285000590761F482819381209719F09B838A83C1
:102860002BC09093E1028093E00226C02115310530
:1028700019F04217530718F49A01BE01DF01EF0166
:102880000280F381E02DDCCF2115310509F1281BF1
:10289000390B2430310590F412968D919C91139749
:1028A0006115710521F0FB019383828304C090932D
:1028B000E1028093E002FD01329644C0FD01E20F87
:1028C000F31F81939193225031092D933C933AC089
:1028D0002091DE023091DF02232B41F4209102018E
:1028E000309103013093DF022093DE02209100013A
:1028F000309101012115310541F42DB73EB74091CA
:10290000040150910501241B350BE091DE02F0918A
:10291000DF02E217F307A0F42E1B3F0B281739073D
:1029200078F0AC014E5F5F4F2417350748F04E0F2B
:102930005F1F5093DF024093DE028193919302C0A8
:10294000E0E0F0E0CF01DF91CF9108950F931F9366
:10295000CF93DF93009709F48CC0FC013297138268
:1029600012820091E0021091E1020115110581F43B
:1029700020813181820F931F2091DE023091DF028E
:102980002817390779F5F093DF02E093DE0271C072
:10299000D80140E050E0AE17BF0750F412962D91D9
:1029A0003C911397AD012115310509F1D901F3CF00
:1029B0009D01DA013383228360817181860F971F25
:1029C0008217930769F4EC0128813981260F371F9C
:1029D0002E5F3F4F318320838A819B819383828343
:1029E000452B29F4F093E102E093E00242C01396F4
:1029F000FC93EE931297ED01499159919E01240F9A
:102A0000351FE217F30771F480819181840F951FC0
:102A1000029611969C938E938281938113969C9338
:102A20008E931297E0E0F0E0D80112968D919C9180
:102A30001397009719F0F8018C01F6CF8D919C91B6
:102A400098012E5F3F4F820F931F2091DE0230913D
:102A5000DF022817390769F4309729F41092E10250
:102A60001092E00202C0138212821093DF020093E0
:102A7000DE02DF91CF911F910F91089581E090E0E8
:102A8000F8940C945315FB01DC0102C001900D92E7
:102A900041505040D8F70895DC0101C06D9341507A
:102AA0005040E0F7089510E0CCE6D0E004C0FE010D
:102AB0000E94F7132196CD36D107C9F7F894FFCFBE
:102AC0000000E2028000000000002502A603590178
:102AD000580100000000CB00A6035901CA001F01E5
:102AE0003701B2002053484F57455220434F4E54B0
:102AF000524F4C0050524F4A454354003130306DD4
:102B0000730054696D657220696E205345433A0025
:102B1000366D696E20636F6D706C6574656420201E
:102B2000003A576174657220666C6F773A000D0A3F
:102B3000004D4C00316D696E20636F6D706C657473
:102B40006564202000326D696E20636F6D706C6566
:102B5000746564202000336D696E20636F6D706C46
:102B600065746564202000346D696E20636F6D703C
:102B70006C65746564202000356D696E20636F6D2F
:102B8000706C6574656420200049444C4500546DA8
:062B900072205376630081
:00000001FF
